:020000040800F2
:10000000280F00209D01000803270008192500087B
:1000100001270008010E0008FD2F00080000000065
:10002000000000000000000000000000D9290008C6
:10003000590E00080000000025270008DB290008F1
:10004000B7010008B7010008B7010008B7010008B0
:10005000B7010008B7010008B7010008B7010008A0
:10006000B7010008B7010008B7010008B701000890
:10007000B7010008290E0008B7010008350E000876
:10008000410E0008B7010008B7010008B7010008D9
:10009000B7010008B7010008B7010008B701000860
:1000A000B7010008B7010008B7010008B701000850
:1000B000B7010008B7010008B7010008B701000840
:1000C000B7010008B7010008B7010008B701000830
:1000D000B7010008D92F0008E52F0008F12F00080C
:1000E000B7010008B7010008B7010008B701000810
:1000F000B7010008B7010008B7010008B701000800
:10010000B7010008B7010008B7010008B7010008EF
:10011000B7010008B92A0008B7010008B7010008B4
:10012000B70100084D0E0008B7010008B70100082C
:10013000B7010008B7010008B7010008B7010008BF
:10014000B7010008B7010008B7010008B7010008AF
:10015000B7010008B7010008B7010008B70100089F
:10016000B7010008B7010008B7010008B70100088F
:10017000B7010008B7010008B7010008000000003F
:10018000B7010008B7010008DFF80CD000F0CAFB87
:100190000048004779390008280F002006488047AA
:1001A00006480047FEE7FEE7FEE7FEE7FEE7FEE75C
:1001B000FEE7FEE7FEE7FEE7752A00088901000872
:1001C0002DE9F05F0546002092469B46884606468C
:1001D000814640241BE0284641464746224600F01F
:1001E000F7F853465A46C01A914110D311461846A3
:1001F000224600F0DEF82D1A67EB01084F46224632
:100200000120002100F0D5F817EB00094E41201E17
:10021000A4F10104DFDC484631462A46434600F09B
:1002200000B830BCBDE8C09F00487047643F00087C
:1002300010B50446FFF7F8FF0068005D00F001000C
:1002400010BDD2B201E000F8012B491EFBD270476D
:100250000022F6E710B513460A4604461946FFF792
:10026000F0FF204610BD30B505462A460B4612F871
:10027000010B13F8014B08B1A042F8D01CB10028C3
:1002800002D06D1CF1E7284630BDCAB2401E10F8FE
:10029000011F8A4202D00029F9D1002070472DE9C0
:1002A000F04791460F4680460446002614F8015B4D
:1002B0002DB1FFF7B9FF0068405DC007F6D12B2DC7
:1002C00002D02D2D18D0641E4A463946204600F033
:1002D0008FF827B13968A14201D1C7F800807105B4
:1002E0004FF002040BD54042002803DD02F09AFED5
:1002F0000460A007BDE8F08746F48066E4E70028C4
:10030000F8DA02F08FFE04606FF00040F2E770B59B
:10031000064602F087FE046805460A2200213046A0
:10032000FFF7BDFF2C6070BD00F0004230F00040D0
:100330000AD0C10D01F56071C0F3160042EA015107
:10034000C20840071143704700200146704701F082
:10035000004330B421F0004150EA010206D00A0DFA
:10036000A2F56072C1F31301002A02DC30BC002048
:100370007047440F44EAC104C100E01830BC00EBF0
:10038000C25000F0D5B830B50B46014600202022FF
:10039000012409E021FA02F59D4205D303FA02F592
:1003A000491B04FA02F52844151EA2F10102F1DCF2
:1003B00030BD202A04DB203A00FA02F10020704709
:1003C0009140C2F1200320FA03F319439040704793
:1003D000202A04DB203A21FA02F00021704721FA9A
:1003E00002F3D040C2F12002914008431946704701
:1003F0002DE9F05F82460078002715468B460AF10A
:100400000104B946302801D09DB113E014F8010B66
:100410000127782803D0582801D045B10AE00DB152
:10042000102D07D10027102514F8010B02E0082534
:1004300000E00A250026B0460EE005FB080005FB9B
:1004400006F1012701EB10461FFA80F8B6F5803F50
:1004500000D3B94614F8010B294600F087FA0028AA
:10046000EBDABBF1000F05D00FB1641E00E054467B
:10047000CBF80040B9F1000F06D002F0D3FD022105
:100480000160C81E00F003B848EA0640FAE730BC35
:10049000BDE8C09F0FB4002300B589B00CA900913E
:1004A0000B996FF00042CB601E4B06931E4B0793D7
:1004B0000423CDE901321D4A089202466B46002012
:1004C00000F0F6FA09B05DF814FB70B586B0064688
:1004D0004FF0FF300091CDE90101002015460C4698
:1004E00004903246694604A8FFF7D4FF02460498F8
:1004F000211825B108B1084600E02046286004987C
:1005000000280DD0002A02DD0098884208D0081B80
:100510000094CDE901043246694604A8FFF7BAFF0A
:1005200006B070BDEF0C00080D0D00083102000888
:100530000029A8BF7047401C490008BF20F00100F7
:10054000704710B4B0FA80FC00FA0CF050EA0104D5
:1005500004BF10BC704749B1CCF1200421FA04F467
:1005600011FA0CF118BF012121430843A3EB0C0140
:10057000CB1D4FEA00614FEA102042BF002010BCA3
:10058000704700EBC35010440029A4BF10BC704753
:10059000401C490008BF20F0010010BC70472DE945
:1005A000FE4F804681EA0300C00F0C46009021F008
:1005B000004123F00045B8EB0200A94105D24046B6
:1005C000214690461C460B46024623F0004010434D
:1005D00047D0270DC7F30A00C3F30A510290401A0F
:1005E000019040286BDAC3F3130040F4801B00989D
:1005F000924620B10023D2EB030A63EB0B0B019868
:100600005946C0F140025046FFF7D3FE06460D465C
:1006100050465946019A00F097F910EB08006141E5
:10062000002487EA115284EAE7731A4340D0009A03
:1006300062B3019A012A4FEA075215DC001B61EBF5
:1006400002014FF0004202EA0752CDE90042001CCD
:1006500041F5801132462B4600F078FB03B000F0E4
:1006600045B840462146F9E7001B61EB0201001C3A
:1006700041F5801300185B412018A2F5001747EBE5
:10068000030140EAD570B6196D4111E06D084FEADB
:10069000360645EAC0754FEA0752001B61EB0201BE
:1006A000001C41F5801149084FEA30000019514102
:1006B00032462B4603B000F01CB800F038BB00985F
:1006C000012240000023D0EB020263EBE0730098AC
:1006D00021464FEAE074B8EB000061EB0401E9E762
:1006E00083F000435BE781F0004158E730BCBDE890
:1006F000C08F30BCBDE8C04FFFF7DFBF2DE9FE4F14
:1007000081EA030404F0004421F0004100944FF01A
:10071000000B23F0004350EA01045ED052EA0304C8
:100720005BD0C3F30A54C1F30A552C44A4F2F3344A
:100730000194A0FB0254C1F3130141F48011C3F3EF
:10074000130343F4801301FB024400FB034E840AAD
:10075000970A44EA815447EA8357A4FB0768029545
:100760008D0A05FB07854FEA932C04FB0C542705E3
:10077000029D4FEA065847EA1637B5EB08056EEBBF
:10078000070C870E920E47EA811742EA8312A7FBF5
:100790000201B6EB0B0164EB00042B0D43EA0C33B2
:1007A0005E1844EB1C50DA465146E7FB0201C5F3E4
:1007B00013044FEA0B3343EA14534FEA0432019C0B
:1007C00043EA0603A4F10C040294009CCDE900B4B2
:1007D00000F0BCFA03B000F003B800200146F9E7CE
:1007E00030BCBDE8C08F2DE9F04D81EA030404F070
:1007F000004B21F0004514464FF0000A23F0004161
:1008000050EA050220D054EA01021DD0C5F30A5770
:100810000246C5F31303C1F31300C1F30A5640F4B3
:10082000801543F48013A7EB0608101BD64608F288
:10083000FD3873EB050002D308F1010801E09218BE
:100840005B41B8F1000F03DA00200146BDE8F08DEE
:1008500000204FF48011064684460EE0171B73EB10
:10086000050705D3121B63EB050306434CEA010C95
:1008700049084FEA300092185B4150EA0107EDD178
:1008800052EA030012D082EA040083EA0501084319
:1008900005D0101BAB4106D20122002306E0002246
:1008A0004FF0004302E06FF0010253101AEB060014
:1008B0004CEB085110EB0A0041EB0B01BDE8F04D89
:1008C00000F035BAC1F30A52C1F3130140F2FF330D
:1008D00041F480119A4202DA00200146704740F24A
:1008E00033439A42A2F2334202DC5242FFF770BD18
:1008F000FFF75FBD30B5041E71F1000404DB4FF05B
:100900000044404264EB0101141E73F1000405DB56
:100910001C464FF00043524263EB0403994208BF68
:10092000904230BD064C074D06E0E06840F0010300
:1009300094E8070098471034AC42F6D3FFF728FC40
:10094000683F0008883F0008202A06DBCB17203AC2
:1009500041FA02F043EAE07306E041FA02F3D040C4
:10096000C2F1200291400843194670473A2800D24C
:10097000303820F02002412A01D3A2F1370088420A
:1009800001D34FF0FF3070472DE9FF4F087883B057
:100990009946FF2805D0491C2D2804D000240020AA
:1009A00008E000200BE00124F9E700EB800003EBF6
:1009B0004000491C0B78FF2BF7D104B140420023C3
:1009C0000293147819461D462D2C01D02B2C04D1EE
:1009D000521C2D2C13D000240294AA461478FF2C0C
:1009E0000FD00A25A3FB057801FB05814FF0000C11
:1009F00003FB0C11521CE3194AEB0101EEE7012441
:100A0000EAE7814453EA010002D019F5C87F06DA0B
:100A100003980021C0E9001107B000F065B9002576
:100A2000AE4E2F46DFF8B882184600F0DDF9CDE96A
:100A30000001B9F1000002DAC9F1000400E0044647
:100A40000023A74A1AEB030B42EB045A12E0E0071B
:100A500007D02A46334638464146FFF74FFE074641
:100A600088462A46334610461946FFF747FE054694
:100A70000E466410002CEAD1DDE90001B9F1000F47
:100A80005A46534606DAFFF7AEFE3A464346FFF7AC
:100A9000AAFE05E0FFF732FE3A464346FFF72EFE78
:100AA000029A0AB181F00041039AC2E90001B3E75A
:100AB0002DE9FF4F1F468DB0D7E901464FF0FF38B3
:100AC0002E2045464FF000090B90B9696D1C0E9819
:100AD0008847396A824688470028F6D1BAF1FF3F35
:100AE0000AD024F4D064002E11DDBAF12B0F08D007
:100AF000BAF12D0F0BD102E0404611B08DE744F45E
:100B00008064B9696D1C0E9888478246761E6946D6
:100B1000600501D52D2000E02B208DF8000001F1AB
:100B2000010B0DF1200809E0B9696D1C0E9888478A
:100B300082460F9844F40074761E0560002E02DD94
:100B4000BAF1300FF0D00B998A453ED144F08004C1
:100B500006E00F99681CA9F1010944F400740860CB
:100B6000B9696D1C761E0E98884782463028F0D0F1
:100B70002BE00B998A4505D1200603D444F080046C
:100B8000761E18E0504602F050FB08B30DF1130139
:100B9000761E44F400748B4508D2AAF130000BF89D
:100BA000010B200607D5A9F1010003E0200602D4BD
:100BB00009F101008146A00502D50F99681C086063
:100BC000B9696D1C0E9888478246002ED1DC53E02F
:100BD000002E51DDBAF1650F02D0BAF1450F4BD1AD
:100BE000A00549D5B9696D1C24F44074761E0E9891
:100BF00088478246002E0CDD2B2804D0BAF12D0F39
:100C000007D144F48074B9696D1C0E9888478246F8
:100C1000761EE00501D52D2100E02B2108F8011BEF
:100C2000CDF82C8021E00DF12901761E44F40074EA
:100C300088450CD2AAF1300010F0FF0088F80000BF
:100C400002D10B99884509D908F1010806E0E005B1
:100C500001D5244801E042F20F708146B9696D1C4C
:100C60000E98884782460F980560002E04DD504696
:100C700002F0DBFA0028D6D1F9690E988847FF20E8
:100C80008BF8000088F800000020069007904B4683
:100C90006A4608A906A8FFF777FEA00502D46FF000
:100CA00001002AE714F0240F0AD0E00714D1DDE98F
:100CB00006123868031D3B600068C0E900120BE0B3
:100CC000DDE90601FFF743FB0146E00704D1386880
:100CD000021D3A600068016028460EE700001440DB
:100CE0000000F03FF1D8FFFF30BCBDE8C08F426884
:100CF00042B1016811F8013B23B1521EC0E9001254
:100D0000184670470121C160881E704742685AB179
:100D1000C368016843B983688B4205D0491E521CE1
:100D2000C0E90012002070474FF0FF30704710B547
:100D3000141E73F1000408DA401C41F100019218FE
:100D40005B411A4301D120F0010010BD2DE9F04DA7
:100D500092469B4611B1B1FA81F202E0B0FA80F2FC
:100D600020329046FFF725FB04460F4640EA0A0072
:100D700041EA0B0153465A46084313D0114653EA41
:100D8000010019D0C8F140025046FFF721FB05468B
:100D90000E46504659464246FFF70BFB084305D026
:100DA000012004E020463946BDE8F08D00200543CF
:100DB00046EAE0762C4337430A986305E40AA0EB41
:100DC00008000022FD0A44EA47540A3002D50020F8
:100DD0000146E9E7010510196941DDE908450019F7
:100DE0006941BDE8F04DA2E70EB540F233420292F0
:100DF0000022CDE900221346FFF7A8FF03B000BD93
:100E0000FEE70FB400B5C1B043AA6846429902F0AC
:100E1000F7F80146FF2801DD4FF48071684601F0C4
:100E200023FB41B05DF814FB014800F064B80000FA
:100E3000E00A0020014800F05EB80000500A0020DF
:100E4000014800F058B80000980A0020014800F05E
:100E500052B80000080A0020704770470023038042
:100E600043804160028170470089491CB1FBF0F268
:100E700000FB121080B2704770B504460188FFF77E
:100E8000F3FF61680D5C21882046FFF7EDFF2080AD
:100E9000284670BD70B50D4604464188FFF7E4FF53
:100EA000608061680D5470BD10B590F82510002465
:100EB000022903D00421C16301241AE001680A68F1
:100EC00022F00E020A6001680A6822F001020A603C
:100ED00090F84410036C01F01C02012101FA02F2A7
:100EE0005A6080F82510002180F82410816B01B130
:100EF0008847204610BDF0B4016C0C6801680D688D
:100F000090F8442002F01C06042202FA06F3234261
:100F100011D06B070FD50B689B0603D40B6823F029
:100F200004030B6090F8441001F01C018A40016C2E
:100F30004A60016B1DE0022303FA06F727424FF0D7
:100F4000000C4FF0010218D0AF0716D50C68A406AC
:100F500005D40C6824F00A040C6080F8252090F871
:100F6000441001F01C018B40016C4B6080F824C0E0
:100F7000C16A00291AD0F0BC08470823B3402342B5
:100F800014D02B0712D50B6823F00E030B6090F8DA
:100F90004410036C01F01C0102FA01F15960C263B4
:100FA00080F8252080F824C0416BE2E7F0BC704750
:100FB00070B568B12B4C036814212B4AA34209D2A7
:100FC0002A4C1C44B4FBF1F18900C0E910210BE06C
:100FD000012070BD234C64421C44B4FBF1F1890034
:100FE0004164204908390164022180F825101C68F9
:100FF00047F6F0718C43D0E902152943D0E9045635
:101000003543294385692943C5692943056A29432D
:10101000214319608168B1F5804F19D0036C0F210D
:10102000934202D152F8A83F02E00E4AA032136860
:1010300090F8444004F01C04A1408B43136090F8E6
:101040004430416803F01C03994013681943116050
:101050000021C163012280F8252080F82410084671
:1010600070BD00000804024000000240F8FFFDBF10
:1010700070B5044600F0F4F80546601C00D0641C0E
:1010800000F0EEF8401BA042FAD370BD2DE9F84FF6
:10109000DFF898B100234FF0010C4FF0030A4FF036
:1010A0000F090BF1040EB9E00CFA03F4224070D0E2
:1010B0004D68022D01D0122D0ED1DD0800EB850800
:1010C000D8F820505E07F70E09FA07F6B5430E6907
:1010D000BE402E43C8F8206007685E0091F8048087
:1010E0000AFA06F508F00308AF4308FA06F848EADA
:1010F0000708C0F800804F68012F05D0022F03D0E9
:10110000112F01D0122F13D1D0F80880CF6828EA10
:101110000508B74047EA08078760D0F804800F79D0
:1011200028EA0408C7F300179F4047EA080747600A
:10113000D1F804806FEA0807BF0706D1C76AA74342
:10114000C8F3C0049C403C43C462C468AC438D688F
:10115000B5402543C5604C68E4005ED5344C256E2F
:1011600045F001052566246E23F0030504F0010413
:101170000094304C2E19B4689D072F0F09FA07F51B
:10118000AC43B0F1904F05D02B4DA84204D10125BE
:101190001CE042E0002519E0284DA84201D10225BB
:1011A00014E0274DA84201D103250FE0254DA842A8
:1011B00001D104250AE0244DA84201D1052505E00E
:1011C000224DA84201D1062500E00725BD40254358
:1011D000B560DBF800405D464E689443F60300D5E9
:1011E00014432C60DEF8004075464E689443B60305
:1011F00000D514432C600D4D08352C684E6894437F
:10120000F60200D514432C60084D0C352C684E684E
:101210009443B60200D514432C605B1C0A6832FA72
:1012200003F57FF441AF00F013B800000004014063
:10123000001002400000014000040048000800487F
:10124000000C004800100048001400480018004836
:1012500018BCBDE8E08F0AB18161704781627047B8
:10126000014800687047000004000020024801683F
:10127000491C0160704700000400002010B50024E4
:10128000032000F069F80F2000F008F808B10124ED
:1012900001E000F01BF8204610BD000070B50546C7
:1012A00009484FF47A7100240068B0FBF1F000F0B7
:1012B000BDFD08B1012404E000222946501E00F0C3
:1012C0002BF8204670BD0000080000200B4882B0BB
:1012D000016E41F001010166016E01F00101009112
:1012E000816D41F080518165806D002200F0805059
:1012F00000900F21901E02B000F00EB800100240C6
:1013000000F01F02012191404009800000F1E0201F
:10131000C0F8001170470000F0B40E4B1B680C467B
:10132000C3F30223C3F10705042D00D90425191DB9
:10133000072901D2002300E0DB1E012606FA05F191
:10134000491E214099409E40761E16403143F0BC14
:1013500001F0D8B90CED00E0064900F0070208687A
:101360004FF6FF03184040EA0220034A104308608A
:10137000704700000CED00E00000FA051649B0F5DA
:10138000007F0868C0F3412009D0022805D0086812
:1013900020F4C06040F4806008600020704701289D
:1013A000FBD0086820F4C06040F4007008600B486F
:1013B0003222006850430A4AB0FBF2F0401C00E0C1
:1013C000401E4A69520501D50028F9D148694005F7
:1013D000E3D50320704700000070004008000020A3
:1013E00040420F000248006800F4C06070470000EF
:1013F000007000400248016841F48071016070474C
:10140000007000400248016841F00401016070472B
:10141000001002402DE9F84F044600270088E54DF2
:101420003E46010504F1200B1DD5606E78B1B0F584
:10143000800F11D0B0F5000F04D0B0F5400F22D0CE
:1014400001270FE0E86840F48030E8601BE00021ED
:10145000201D01F069F903E00021584601F0FAF976
:10146000070010D03E462088C00426D5A06EC0B12B
:10147000B0F1807F1AD0B0F1007F0DD0B0F1407F85
:1014800019D0012718E0D5F88800616E20F44000DB
:101490000843C5F88800E6E7E86840F48030E86073
:1014A00009E00021201D01F03FF903E0002158462A
:1014B00001F0D0F90746F7B13E46206880033AD5DF
:1014C000A86D4FF00008C00009D4A86D40F080500E
:1014D000A865A86D4FF0010800F080500090DFF87B
:1014E000D8A2DAF8001041F48071CAF80010FFF7B2
:1014F000B7FE814610E0D5F88800A16E20F040705C
:101500000843C5F88800D8E7FFF7AAFEA0EB09005A
:10151000022801D9032705E0DAF80000C005F3D559
:10152000002F7CD04FEA0706B8F1000F03D0A86D5A
:1015300020F08050A8652078C00707D0D5F8880033
:10154000A16B20F003000843C5F8880020788007CD
:1015500007D5D5F88800E16B20F00C000843C5F8EA
:1015600088002078400707D5D5F88800216C20F046
:1015700030000843C5F888002078000707D5D5F863
:101580008800616C20F0C0000843C5F8880020780E
:10159000C00607D5D5F88800A16C20F44070084338
:1015A000C5F888002078800607D5D5F88800E16C5A
:1015B00020F440600843C5F888002088800507D5DE
:1015C000D5F88800E16D20F440200843C5F8880074
:1015D0002088400507D5D5F88800216E20F44010FA
:1015E0000843C5F888002078400607D5D5F888005C
:1015F000216D20F440500843C5F88800207800068B
:1016000007D5D5F88800616D20F440400843C5F83F
:1016100088002088C00509D5D5F8880000E01CE0C6
:10162000A16D20F440300843C5F8880020884FF0B1
:10163000006780044FF080684FD5D5F88800E16ED0
:1016400020F040600843C5F88800E06EB8423CD105
:10165000E86840F48010E8603FE0D5F8900010F4AE
:10166000407015D0D4F88410814211D0D5F8900084
:10167000D5F8901020F4407041F48031C5F89010F6
:10168000D5F8901021F48031C5F89010C5F890007D
:10169000C00710D0FFF7E4FD074641F2883906E0A5
:1016A000FFF7DEFDC11B494501D903263CE7D5F80C
:1016B00090008007F4D5D5F89000D4F8841020F479
:1016C00040700843C5F890002EE7404505D1012140
:1016D000201D01F029F800B106462068000317D547
:1016E000D5F88800216F20F040600843C5F88800D5
:1016F000206FB84204D1E86840F48010E86007E049
:10170000404505D10121201D01F00EF800B106462B
:101710002068400317D5D5F88800616F20F040603D
:101720000843C5F88800606FB84204D1E86840F407
:101730008010E86007E0404505D10121201D00F040
:10174000F3FF00B10646208840041AD5D5F888007A
:10175000A16F20F040500843C5F88800A06FB0F199
:10176000805F03D0B0F1005F05D00AE00221201DA8
:1017700000F0DAFF03E00221584601F06BF800B1F7
:1017800006462088000407D5D5F88800E16F20F0D0
:1017900080400843C5F888002068C00307D555F885
:1017A000880FD4F8801020F00040084328603046AD
:1017B00000F004B8001002400070004018BCBDE802
:1017C000E08F00002DE9F0470F46050058D03F4E4E
:1017D000306800F00700B84209D2306820F00700F6
:1017E00038433060306800F00700B84248D12878AC
:1017F000374CC0072CD06868032811D0022812D0BB
:10180000216898B1490500293ADAA16821F003015D
:101810000143A160FFF724FD804641F2883910E0C2
:1018200021688901EFE721688903ECE78907EAE786
:10183000FFF716FDA0EB0801494502D90320BDE8DA
:10184000F087A068696800F00C00B0EB810FEFD161
:101850002878800705D5A068A96820F0F000084323
:10186000A060306800F00700B8420BD9306820F063
:10187000070038433060306800F00700B84201D0FC
:101880000120DCE72878400705D5A068E96820F446
:10189000E0600843A0602878000706D5A0682969A1
:1018A00020F4605040EAC100A06000F03BF8A1685D
:1018B000084AC1F30311515C01F01F01C8400649F9
:1018C0000860BDE8F0470F20FFF7E8BC00200240A9
:1018D00000100240983E0008080000200548064914
:1018E00000688968054AC1F30221515C01F01F01BB
:1018F000C84070470800002000100240D83E000891
:101900000548064900688968054AC1F3C221515C4F
:1019100001F01F01C840704708000020001002407D
:10192000D83E000870B52549002318468A68CC685F
:1019300012F00C0204F00306214C4FEA640509D0B2
:101940000C2A05D0042A26D0082A00D1284670BDCA
:10195000012E10D10B681B0704D4D1F89430C3F3C7
:10196000032302E00B68C3F30313164E56F823302B
:101970007AB10C2AEBD1C86800F00302C868C0F342
:101980000210401C022A08D0032A09D0B3FBF0F051
:1019900008E0184670BD204670BDB4FBF0F001E0D1
:1019A000B5FBF0F0CA68C968C2F306225043C1F320
:1019B0004161491C4900B0FBF1F070BD00100240CC
:1019C0000024F400A83E00082DE9F84305007CD06F
:1019D000FD4CA06800F00C06E06800F003072878D2
:1019E000C00661D576B10C2E01D1012F0AD0A869AD
:1019F0000028206878D040F001002060FFF730FC1C
:101A0000804659E02068800702D5A8690028DED00A
:101A1000286A2168090703D5216801F0F00104E074
:101A2000D4F89410F02202EA1111884215D900F07E
:101A300095FF002849D1206840F008002060206808
:101A4000296A20F0F000084320606068E96920F40A
:101A50007F4040EA0120606015E0206840F0080007
:101A600020602068296A20F0F00008432060606848
:101A7000E96920F47F4040EA01206060286A00F0B4
:101A80006DFF0028D6D1FFF74DFFA168CF4AC1F303
:101A90000311515C01F01F01C840CD4908600F20BF
:101AA000FFF7FCFB00287DD12FE000BFFFF7D8FB3C
:101AB000A0EB0800022876D820688007F6D52068B9
:101AC00040F008002060206801E0BBE00CE0296ADB
:101AD00020F0F000084320606068E96920F47F404E
:101AE00040EA0120606010E020F001002060FFF774
:101AF000B7FB804606E000BFFFF7B2FBA0EB080093
:101B00000228D8D820688007F6D42878C00740D0AB
:101B1000082E18D00C2E01D1032F14D06868B0F510
:101B2000803F17D0B0F5A02F206817D020F4803068
:101B30002060206820F4802020606868E0B1FFF712
:101B40008FFB804614E02068800322D56868002857
:101B500078D01EE0206840F48030EDE740F480202B
:101B60002060F7E7FFF77CFBA0EB08006428A2D811
:101B700020688003F6D50CE0FFF772FB804605E095
:101B8000FFF76EFBA0EB0800642894D82068800360
:101B9000F6D4287880073BD5042E11D00C2E04D122
:101BA000022F01E036E1A1E00AD0E86800282068B1
:101BB0001ED040F480702060FFF752FB07460CE017
:101BC000206840050CD5E8680028C1D008E000BFB7
:101BD000FFF746FBC01B022893D820684005F7D5C5
:101BE0006068297C20F0F85040EA016060600FE0F6
:101BF00020F480702060FFF733FB074605E000BF4C
:101C0000FFF72EFBC01B022870D820684005F7D4D0
:101C10002878000729D568690028D4F8940012D0E4
:101C200040F00100C4F89400FFF71AFB074604E0F7
:101C3000FFF716FBC01B022858D8D4F89400800781
:101C4000F6D512E0EDE020F00100C4F89400FFF7B3
:101C500007FB074605E000BFFFF702FBC01B022899
:101C600044D8D4F894008007F6D42878400768D583
:101C7000A06D0027C00008D4A06D40F08050A06582
:101C8000A06D012700F08050009052480168C905FE
:101C900012D40168814641F480710160FFF7E0FAD7
:101CA000804605E0FFF7DCFAA0EB080002281DD80B
:101CB000D9F80000C005F5D5A868012817D0052877
:101CC000D4F8900018D020F00100C4F89000D4F8A7
:101CD000900020F0040000BFC4F89000A86841F212
:101CE0008839D0B1FFF7BCFA804611E06BE0D4F838
:101CF000900040F00100EFE740F00400C4F89000CD
:101D0000F5E700BFFFF7ACFAA0EB080149455AD848
:101D1000D4F890008007F5D50EE0FFF7A1FA8046D1
:101D200006E000BFFFF79CFAA0EB0801494570D818
:101D3000D4F890008007F5D41FB1A06D20F080503A
:101D4000A065A86AF0B30C2E6BD00228206820F0A2
:101D50008070206004D0206810F0205F47D04AE0F7
:101D6000FFF77EFA064604E0FFF77AFA801B0228A6
:101D70004FD820688001F7D4286BE96A0001103839
:101D80000843696BAA6B0902120941EA4241084300
:101D9000A98F114A490802EB4151084395F84010B8
:101DA0004908120102EB41610843E060206840F0FD
:101DB00080702060E06840F08070E060FFF750FACB
:101DC000054610E02BE024E000100240983E000899
:101DD00008000020007000400000E0FFFFF740FA1C
:101DE000401B022815D820688001F7D517E0E0686D
:101DF00020F00300E060E0680B490840E060FFF776
:101E00002FFA054608E000BFFFF72AFA401B022818
:101E100002D90320BDE8F88320688001F4D40020B3
:101E2000F8E70120F6E70000FFFFEEFE10B5401EC8
:101E3000B0F1807F01D3012010BD4FF0E02460613C
:101E40000F21601700F05EFC0020A06107202061D8
:101E5000002010BD704770472DE9F041026804462C
:101E6000D0691168936810F00F0F4FF000055BD038
:101E700003F0010601F49077374369D0C70707D014
:101E8000CF0505D501271762626F42F00102626734
:101E9000820708D5DA0706D0276802223A62626F05
:101EA00042F004026267420708D5DA0706D02368C9
:101EB00004221A62626F42F00202626702070AD5C8
:101EC00001F02002324306D0236808221A62626FB2
:101ED00042F008026267626F002A32D0800605D5A0
:101EE000880603D5216E09B120468847606F000738
:101EF00003D420688068400625D5204600F07EFE89
:101F000020688168490619D5816821F04001816007
:101F1000E06E98B120498163E06EFEF7C5FF0028AE
:101F20000FD0E06E816B06E0860611D58E060FD5C8
:101F3000216E1EE02046BDE8F04108472046FFF72D
:101F40008AFFBDE8F0812046FFF785FF6567F8E767
:101F5000C60209D55B0207D54FF4801010622046F7
:101F6000BDE8F041FFF776BF030605D50B0603D5A4
:101F7000616E0029DED1E4E74006E2D54806E0D5EF
:101F80001168204621F040011160202184F8711071
:101F9000656600F04DFAD4E7E92B000810B504009F
:101FA00003D094F8710010B107E0012010BD0020AB
:101FB00084F87000204600F027F8242084F871008F
:101FC0002068016821F001010160204600F082FED6
:101FD0000128EBD0606A10B1204600F073FD206844
:101FE000416821F4904141602068816821F02A0114
:101FF00081602068016841F0010101602046BDE870
:10200000104000F0C3BD00002DE9F04786B0054642
:1020100014216846FEF71CF98D4A2B6800248D4870
:102020000321DFF834A280264FF00208934248D102
:10203000826D42F480128265826D02F480120592F4
:10204000C26C42F00402C264C26C02F00402059247
:10205000C26C42F00802C264C06C0F4600F0080077
:1020600005909814CDE9000802AA4FF0080982E80B
:10207000900269465046FFF709F80420CDE90008B0
:1020800002AA694682E890027448FEF7FFFF754F86
:10209000734938463960C0E90184C0E903467C6170
:1020A000BC61FC613C62FEF783FF08B1FEF7D5FE20
:1020B000EF66002211463520BD62FFF72DF935206D
:1020C00042E0DFF8A4C107224FF090494FF40057D7
:1020D00063453ED1036E43F480430366036E03F40D
:1020E00080430593C36C43F00103C364C06C029446
:1020F00000F001000590CDE903124FF4C060CDE976
:10210000000869464846FEF7C1FFDFF86491574969
:102110004846C9F80010C0E90184C0E90346C9F87F
:102120001440C9F81840C9E90747FEF741FF08B154
:10213000FEF793FEC5F86C90002211462520C9F8E1
:102140002850FFF7E9F82520FFF7DAF806B0BDE8D8
:10215000F087DFF820C163453AD1836D43F4003343
:102160008365836D03F400330593C36C43F001036F
:10217000C364C06C029400F001000590CDE9031225
:102180000C20CDE9000869464846FEF77FFF374935
:10219000DFF8E49014314846C9F80010C0E9018422
:1021A000C0E90346C9F81440C9F81840C9E907470F
:1021B000FEF7FEFE08B1FEF750FEC5F86C90002257
:1021C00011462620C9F82850FFF7A6F82620BBE7BD
:1021D000DFF8A8C06345B9D1836D43F480238365DC
:1021E000836D03F480230593C36C43F00403C3643D
:1021F000C06C029400F004000590CDE90312302079
:10220000CDE9000869465046FEF740FF1749DFF860
:10221000709028394846C9F80010C0E90184C0E927
:102220000346C9F81440C9F81840C9E90747FEF742
:10223000BFFE08B1FEF711FEC5F86C9000221146F2
:102240002720C9F82850FFF767F827207CE700000F
:10225000005000400010024000080048000C0048F8
:102260001C040240080A00200038014058000240C7
:10227000500A002000440040980A00200048004016
:10228000E00A002030B590F87230202B4AD1B1B16D
:10229000AAB190F87030012B44D0012380F870303F
:1022A0004165A0F85820A0F85A20002202661D03BC
:1022B0008168FF23A94207D1016911B10CE0012017
:1022C00030BD40F2FF110DE07F2419B1B1F1805F04
:1022D00005D009E0016901BBA0F85C3004E00169A8
:1022E000D9B13F21A0F85C104267222180F872101A
:1022F00001688B6843F001038B608168A94201D1BA
:10230000016969B10849016680F8702000680168B8
:1023100041F490710160002030BDA0F85C40E3E71B
:102320000249F0E7022030BD792C00081D2C00087E
:1023300010B501680A8B42F008020A8301680A8B13
:1023400042F010020A830068094988420FD1094807
:1023500000F0E3F820B9084801780648FEF79AFD36
:10236000BDE81040012204490448FFF78BBF10BDAF
:1023700000500040FC090020000000201000002058
:102380002DE9F843044690F871001F4616460D46A5
:1023900020284BD1C5B1BEB194F87000012845D0BA
:1023A000012084F870004FF00008C4F874802120E8
:1023B00084F87100FEF754FFA4F850608146A4F839
:1023C00052604FF4805615E00120BDE8F88380216B
:1023D000204600F0CFFDD8B9A068B04201D12069F5
:1023E000C0B115F8010B21680885B4F85200401EF1
:1023F000A4F85200B4F852004B464FF00002009788
:102400000028E4D14FF04001204600F0B3FD30B188
:102410000320DAE735F8020BC0F30800E3E72020D9
:1024200084F8710084F870800020CEE70220CCE7A9
:102430007047000010B500F021F9094801680A8BC7
:1024400042F008020A830068018B41F01001018309
:10245000BDE81040012203490148FFF713BF000007
:1024600088000020010000208AB201464FF4FA7370
:102470000148FFF785BF00008800002010B500F07C
:1024800013F9094801680A8B42F008020A830068C0
:10249000018B41F010010183BDE810400122034986
:1024A0000148FFF7EFBE00000001002002000020FD
:1024B00010B500F00FF9094801680A8B42F00802D4
:1024C0000A830068018B41F010010183BDE81040D0
:1024D000012203490148FFF7D5BE00007801002022
:1024E0000300002010B500F0B3F8094801680A8B1A
:1024F00042F008020A830068018B41F01001018359
:10250000BDE81040012203490148FFF7BBBE0000AF
:102510001000002000000020FEE710B504464188AE
:10252000FEF7A2FC2188884201D1012010BD0020C5
:1025300010BD0000194808B5816C41F001018164AB
:10254000816C01F001010091816C41F00201816414
:10255000806C002200F00200009011460D20FEF772
:10256000DBFE0D20FEF7CCFE002211460F20FEF709
:10257000D3FE0F20FEF7C4FE002211461020FEF706
:10258000CBFE1020FEF7BCFE002211463920FEF7DC
:10259000C3FEBDE808403920FEF7B2BE001002407D
:1025A000F0B587B014216846FDF752FE2548C16C8E
:1025B00041F00401C164C16C01F004010591C16CDA
:1025C00041F08001C164C16C01F080010591C16CD2
:1025D00041F00101C164C16C01F001010591C16CC0
:1025E00041F00801C164C16C01F008010591C16CA2
:1025F00041F00201C164C06C134E00F002004FF4C0
:1026000030740590002221463046FEF724FE0F4F1D
:10261000002208213846FEF71EFE0125CDE90045BF
:1026200000240294694630460394FEF72FFD0820EB
:102630000090CDE90154694638460394FEF726FD23
:1026400007B0F0BD00100240000800480004004838
:102650000948084901604FF416514160002181602A
:102660000C22C160C0E904128161C1610162416252
:10267000FFF794BC005000401000002009480849B2
:1026800001604FF4E1314160002181600C22C160A2
:10269000C0E904128161C16101624162FFF77EBC41
:1026A00000380140880000200948084901604FF4C3
:1026B000E1314160002181600C22C160C0E9041257
:1026C0008161C16101624162FFF768BC0044004062
:1026D000000100200948084901604FF4E1314160E0
:1026E000002181600C22C160C0E904128161C161D6
:1026F00001624162FFF752BC0048004078010020AF
:10270000FEE770470907090E002806DA00F00F00FF
:1027100000F1E02080F8141D704700F1E02080F8FF
:1027200000147047704700002DE9F041444C054605
:102730008846E0680026810728680DD0E16801F02E
:102740000301814216D1A8B1E0686968C0F30210A4
:10275000401C88420ED120E0012804D0022805D078
:10276000032807D108E02168890701E021684905AD
:10277000002907DB01265FE02168890302D4216874
:102780004903F5E7E1686A686FF00F0321F0730110
:1027900003EB021211430143E160206820F08060E6
:1027A0002060FEF75DFD074605E000BFFEF758FD1F
:1027B000C01B022837D820680001F7D4B8F1000FF9
:1027C00018D0B8F1010F1ED0287D4FF07E4140088F
:1027D00001EB4060A96840EA01202169194A1140D3
:1027E00008432061206840F080602060FEF738FDDB
:1027F00007461AE0A868E9680002090940EA414072
:102800002169114AEBE7288A1049400801EB405042
:10281000A96840EA012021690D4AE0E7FEF720FDA2
:10282000C01B022801D9032606E020680001F5D567
:102830002069A969084320613046BDE8F0810000A5
:1028400000100240FF80FFF9FF80FDFF0000E0FF65
:10285000FF809FFF2DE9F0413D4C06468846E06829
:102860000025810730680DD0E16801F00301814245
:1028700016D1A8B1E0687168C0F30210401C88420C
:102880000ED120E0012804D0022805D0032807D16A
:1028900008E02168890701E021684905002907DB74
:1028A000012551E02168890302D421684903F5E735
:1028B000E16872686FF00F0321F0730103EB0212FD
:1028C00011430143E160206820F080502060FEF752
:1028D000C7FC074605E000BFFEF7C2FCC01B02288C
:1028E00029D820688000F7D4B8F1000F15D0307CCB
:1028F0004FF07E41400801EB4060B16840EA0120A2
:102900006169144A114008436061206840F08050BA
:102910002060FEF7A5FC07460FE0B068F1680002F2
:10292000090940EA414061690B4AEBE7FEF798FC70
:10293000C01B022801D9032506E020688000F5D5D8
:1029400060697169084360612846BDE8F081000054
:1029500000100240FF80FFF9FF80FDFFF8B51C4D1D
:1029600006460024A86DC00002D5FEF73BFD0DE031
:10297000A86D40F08050A865A86D00F080500090D0
:10298000FEF730FDA96D21F08051A965B0F5007FFB
:1029900004D0802E07D94FF003040AE0802E08D916
:1029A000A02E01D804E001D1022402E0702E00D153
:1029B00001240848016821F00701214301600068F3
:1029C00000F00700A04201D00120F8BD0020F8BDB2
:1029D00000100240002002407047FEF747BC000094
:1029E00010B5B8B0442122A8FDF732FC142133A859
:1029F000FDF72EFC88216846FDF72AFCFEF7FAFC5D
:102A00001B4850F8901F21F01801016014202290FB
:102A100001202490002460212890CDE92941022141
:102A2000CDE92C102E9024202F900720CDE93001E5
:102A300022A83291FEF7C8FF0F2033900320CDE982
:102A400034043694042133A83794FEF7BBFE1720D4
:102A50000F9400900E94109412946846FEF7DAFCDE
:102A60004FF40070FEF78AFCFEF7CCFC38B010BDC6
:102A7000001002400D48016841F4700101600C48EB
:102A8000016841F001010160002181600268094B89
:102A90001A4002608214C260026822F4802202603E
:102AA00081610249C00380390860704788ED00E009
:102AB00000100240FFFFF6EA0148FFF7CDB9000021
:102AC0001000002090F82410C90706D001684A6859
:102AD000836A22F400321A434A6090F8241089076E
:102AE00006D501684A68C36A22F480321A434A60F4
:102AF00090F82410490706D501684A68036B22F450
:102B000080221A434A6090F82410090706D501680C
:102B10004A68436B22F400421A434A6090F824103A
:102B2000C90606D501688A68836B22F480521A436D
:102B30008A6090F82410890606D501688A68C36BFC
:102B400022F400521A438A6090F82410490611D5E5
:102B500001684A68036C22F480121A434A60016CCF
:102B6000B1F5801F06D101684A68436C22F4C002A7
:102B70001A434A6090F82410090606D501684A688D
:102B8000806C22F4002202434A607047F8B50026A8
:102B900004464667FEF764FB0546206800686FF050
:102BA0007E47000708D52B4600224FF4001120462F
:102BB000009700F0DFF960B92068006840070AD587
:102BC0002B4600224FF480012046009700F0D2F9F6
:102BD00008B10320F8BD202084F8710084F8720049
:102BE00084F870600020F8BD10B5806A0021A0F85C
:102BF0005A10A0F85210FFF72EF910BD01680A68AC
:102C000022F490720A6001688A6822F001028A60E8
:102C1000202180F8721000210166704710B5B0F8CD
:102C20005C2090F872300168222B04D0088B40F0B1
:102C30000800088310BD898C436D11401980416DD7
:102C4000891C4165B0F85A10491E0904090CA0F806
:102C50005A10EFD101680A6822F490720A60016884
:102C60008A6822F001028A60202180F87210002117
:102C70000166FFF75DFB10BD10B5B0F85C2090F861
:102C800072300168222B04D0088B40F008000883C2
:102C900010BD898C1140426D531C43651170B0F812
:102CA0005A10491E0904090CA0F85A10F0D1016805
:102CB0000A6822F490720A6001688A6822F00102B0
:102CC0008A60202180F8721000210166FFF730FB36
:102CD00010BD00002DE9F0410446016880682369B9
:102CE000E669184363691025002733431843954A62
:102CF0000B68954E334003430B6020684168E368DE
:102D000021F44051194341602168A069914201D0EA
:102D1000236A18438B6823F4306303438B608B4B27
:102D200021688B4899420DD1D0F8880010F003003B
:102D300006D001285AD0022856D0032859D157E08E
:102D4000012556E0834B99420BD1D0F8880010F052
:102D50000C0047D0042849D0082845D00C2848D179
:102D600046E07D4B99420BD1D0F8880010F030003E
:102D700038D010283AD0202836D0302839D137E042
:102D8000764B99420BD1D0F8880010F0C00029D0C2
:102D900040282BD0802827D0C0282AD128E0704B8B
:102DA00099420ED1D0F8880010F440701AD0B0F5D6
:102DB000807F1BD0B0F5007F16D0B0F5407F18D1D2
:102DC00016E0914215D1D0F8880010F4406009D087
:102DD000B0F5806F0AD0B0F5006F05D0B0F5406F48
:102DE00007D105E0002504E0022502E0042500E00B
:102DF00008255C4B00264FF4004091423DD135B18F
:102E0000022D07D0042D07D0082D10D107E0FEF7C2
:102E100065FD03E0184602E0FEF784FDA8B3626892
:102E200002EB4201814202D8B0EB023F01D90127F7
:102E300075E0DFF834815DB1022D0CD0042D13D084
:102E4000082DF4D150082905401846F1000105E08D
:102E5000FEF744FD0AE050084449F5E70023FDF77A
:102E6000AFF9A0F5407156E0FEF75CFD6268010E17
:102E70000302500818187141F0E7E1694FF6EF7846
:102E800081422FD1092DD2D200E048E0DFE805F0E1
:102E900006092005230505052600C8E7FEF71EFDE7
:102EA00001E0FEF72DFD4100D4F8040001EB5001D4
:102EB000B1FBF0F080B2A0F110014145B7D84FF658
:102EC000F0710140C0F3420001432068C16026E078
:102ED00027496068EAE7FEF725FDE4E74FF4803113
:102EE0006068E3E7092DA2D2DFE805F006091E05B8
:102EF0002205050525009AE7FEF7F0FC01E0FEF744
:102F0000FFFC0146606801EB500100BFB1FBF0F02F
:102F100080B2A0F11001414589D82168C8602666B9
:102F200038466666BDE8F081606803EB5001EDE766
:102F3000FEF7F8FCE5E7616800EB5100B0FBF1F04B
:102F4000E6E7000000800040F369FFEF0038014031
:102F5000001002400044004000480040004C004087
:102F6000005000400024F400FFFC0F00000024F497
:102F70000048E8012DE9F041984617460E46044600
:102F8000069D1DE0681C1BD02DB1FEF769F9A0EB72
:102F90000800A84214D92068016821F4D0710160AA
:102FA0002068816821F001018160202084F871008F
:102FB00084F87200002084F870000320BDE8F081DE
:102FC0002068C06936EA000004D00020B842D9D099
:102FD0000020F3E70120F9E70148FEF73DBF0000BC
:102FE000880000200148FEF737BF000000010020E4
:102FF0000148FEF731BF000078010020FEE7000025
:1030000037B514460846064B6A46214600F014F9C7
:1030100004466946002000F0A9FC20463EBD0000A1
:103020006D390008004870470C00002000000000C7
:1030300030B583B0044600F017F89FED090B054644
:103040008DED000B002221466846FDF73EFA28462A
:1030500000F020F89DED000B03B030BD0000000033
:1030600000000000000000000148006870470000F8
:103070000C00002002E008C8121F08C1002AFAD183
:1030800070477047002001E001C1121F002AFBD1E8
:103090007047000001490860704700000C000020E4
:1030A0002DE9FF5F82B00021DDE90430020DDDF87B
:1030B00040B0034318D044F61050A2F2FF3242430E
:1030C0001514119801281FD0A5EB0B00401C5FEAD6
:1030D000000A4FF000064E4FDFF83891B0465046D8
:1030E00015D5CAF1000413E0119801244AA3012860
:1030F00001D16FEA0B010298119AC0E90031C0E9D1
:10310000024206B000F08EB8CBF10000DFE70446C3
:103110000021404A491842EB0450CDE9001012E06A
:10312000E00707D032463B4640464946FDF7E6FAFF
:103130008046894632463B4610461946FDF7DEFA80
:1031400006460F466410002CEAD1DDE90401DDE9F2
:103150000023BAF1000F06DAFDF7D0FA42464B46DB
:10316000FDF7CCFA05E0FDF73EFB42464B46FDF786
:103170003AFB04460E460022284BFDF7BBFB03D862
:103180004FF0FF30014607E00022254B2046314634
:10319000FDF705FAFDF796FB102409E0002C0ADB89
:1031A0000A220023FDF70CF8039B30321A55641EE7
:1031B00050EA0102F2D1641C039AC4F111031444D1
:1031C000119A012A03D0012208430DD10AE00843D5
:1031D00004D000204FF0110B119072E7A3EB0B0508
:1031E0006D1E0DE05B4504DD4FF0000205F10105A9
:1031F00004E003DA4FF00002A5F10105002AECD04B
:1032000002981199C0E90231C0E9004579E7000050
:10321000000014400000F03F300000000000F043C8
:103220000000E03F30BCBDE8C09F30380A2801D222
:1032300001207047002070472DE9FF4F95B09B4655
:103240008946064600250FE2252877D10024274627
:10325000F84A0121059400E0044316F8013F203BA1
:1032600001FA03F01042F7D130782A2811D06FF01C
:103270002F033078A0F13002092A16D8059A44F0BD
:10328000020402EB820203EB42021044761C05901A
:10329000EFE759F8042B0592002A03DA504244F470
:1032A0000054059044F00204761C30782E2816D184
:1032B00016F8010F44F004042A280DD06FF02F02F5
:1032C0003078A0F13003092B09D807EB870302EB14
:1032D0004303C718761CF3E759F8047B761C307853
:1032E0006C280FD006DC4C2817D068280DD06A282F
:1032F00014D104E0742810D07A280FD10DE044F4E2
:1033000000140AE044F4801401E044F4401472789C
:10331000824202D104F58014761C761C307866282F
:103320000BD013DC582877D009DC002875D045284D
:10333000F6D04628F4D047281AD19DE118E063283A
:1033400035D0642879D0652812D195E1702873D0E2
:1033500008DC6728F1D069286FD06E280DD06F285F
:1033600006D1B5E073282CD0752875D0782874D094
:103370005A46179990476D1C75E1C4F30250022814
:1033800009D003280DD0D9F8001004280DD00D6005
:1033900009F1040967E1D9F80010EA17C1E9005200
:1033A000F6E7D9F800100D80F2E70D70F0E719F894
:1033B000041B8DF8001000208DF80100EA46012062
:1033C00003E059F804AB4FF0FF3061074FF0000104
:1033D00002D40DE008F101018846B9420FDA8045B8
:1033E000F8DB1AF808100029F4D108E008F101010F
:1033F00088468142FADB1AF808100029F6D10598B0
:103400005B46A0EB080721463846179A00F097FA6A
:10341000284400EB080507E04DE029E10DE01AF82B
:10342000010B5A4617999047B8F10108F7D25B464D
:1034300021463846179A13E142E00A220092C4F36B
:1034400002524FF0000A022A08D059F804CB032A8E
:103450004FEAEC710AD00DE029E02AE009F10701FA
:1034600021F00702F2E802C1914609E00FFA8CFC54
:103470004FEAEC71042A03D14FFA8CFC4FEAEC714D
:10348000002907DA0A460021DCF1000C61EB020199
:103490002D2202E0220504D52B228DF804200122E2
:1034A00003E0E20701D02022F7E7904659E00A2125
:1034B00002E010220DE010214FF0000A00910BE015
:1034C00010224FF0000A44F004040827009203E0A1
:1034D00008224FF0000A0092C4F30252022A05D0DB
:1034E00059F804CB0021032A08D009E009F10701AB
:1034F00021F00702F2E802C1914605E01FFA8CFCB8
:10350000042A01D10CF0FF0C4FF00008220728D547
:10351000702806D0009B83F0100353EA0A0305D0FD
:103520000EE040228DF80420012208E05CEA01024E
:1035300006D030228DF804208DF805000222904636
:10354000009B83F0080353EA0A030AD15CEA0102F4
:1035500001D1620705D530228DF804204FF0010813
:103560007F1E582804D034A003900EA802900DE0CE
:1035700036A0F9E753466046009AFCF721FE8446E0
:103580000398825C0298401E029002705CEA01007F
:10359000F0D1029806A9081A00F1200A600702D5A6
:1035A00024F4803400E00127574502DDA7EB0A0030
:1035B00000E0002000EB0A01009005984144401A09
:1035C0000590E00306D45B462146179A059800F063
:1035D000B6F90544002706E001A85A46C05D1799D0
:1035E00090476D1C7F1C4745F6DBE0030CD55B461E
:1035F0002146179A059800F0A2F9054404E030200E
:103600005A46179990476D1C0099481E0090002952
:10361000F5DC08E0029802995A460078491C0291AC
:10362000179990476D1CBAF10001AAF1010AF1DC6B
:1036300065E1000009280100303132333435363776
:1036400038396162636465660000000030313233EE
:10365000343536373839414243444546000000008E
:1036600000F05BF90544761C307800287FF4ECAD5F
:1036700019B0284600F04EB9620700D4062709F1B8
:10368000070222F0070CFCE80223E14603F00048A1
:103690005FEA080C02D00FF2702C0DE05FEA045CC8
:1036A00002D50FF2682C07E05FEAC47C02D00FF26B
:1036B000602C01E0AFF2700C4FF0FF3823F00043B4
:1036C000CDF850C065280CD006DC452809D0462826
:1036D0001DD047283DD13DE0662818D067287ED10F
:1036E00038E00021112F01DB112000E0781CCDE92A
:1036F000000106A90EA8FFF7D3FCDDE90F010E9A21
:1037000003910021009207F1010A04914DE04FF06E
:1037100000400097CDE9011006A90EA8FFF7C0FCF4
:10372000DDE90F0203920E9B11990022DDF80CA037
:103730000093049211B9791C00EB010AB7EB0A005F
:1037400004D4C0F1FF3007F1010A0490AAEB07008E
:10375000019044E0012F00DA01270021112F01DD43
:10376000112000E03846CDE9000106A90EA8FFF7B8
:1037700097FCDDE90F010E9A03910021049100925C
:10378000BA4621070CD40399514500DA8A46BAF1AA
:10379000010F05DD009AAAF10101515C302908D022
:1037A000B84202DA10F1040F06DA0121CDE9011066
:1037B00015E0AAF10101E9E7002805DC04990144BC
:1037C0000491AAEB000102E0411C514500DD8A464C
:1037D0000499401A401C01904FF0004002902007CD
:1037E00004D40198504501DBCDF8048000208DF809
:1037F0004F0002980DF14F07B0F1004F25D02B205C
:103800000E9002984FF0020800280CDA4042029015
:103810002D200E9007E00A210298FCF7B4FD30310C
:10382000029007F8011DB8F10001A8F10108F2DCCF
:1038300002980028EFD1791E0E980870307800F0B9
:10384000200040F0450007F8020D12A8C01B00F14F
:1038500007081498007800B1012000EB0A010198D4
:1038600001EBE07105984144401A401E0590E003C9
:1038700006D45B462146179A059800F060F8054487
:103880001498007818B15A46179990476D1CE003B8
:1038900024D55B462146179A059800F050F8054458
:1038A0001CE00498002807DBDDE90301884203DD02
:1038B0000098405C179901E0179930205A469047CC
:1038C000049805F10105401C04900198401E0190E8
:1038D00004D12E205A46179990476D1CBAF1000169
:1038E000AAF1010ADDDC05E017F8010B5A46179929
:1038F00090476D1CB8F10001A8F10108F4DC5B46AB
:103900002146179A0598ABE62D0000002B00000019
:103910002000000030BCBDE8C08F2DE9F041044616
:1039200000251E461746880404D405E039462020A9
:10393000B0476D1C641EF9D52846BDE8F0812DE91D
:10394000F041044600251E469046C80301D53027A5
:1039500000E02027880404D505E041463846B047FA
:103960006D1C641EF9D52846BDE8F0810A68531C19
:103970000B60107070470000C0B0FDF77FFCFFF7D0
:103980002FF8FEF70DFEFEF7D5FDFEF753FDFEF70F
:1039900075FDFEF78DFDFEF7A5FD27494FF4806408
:1039A000224601F50060FDF759FA2449224601F24A
:1039B0000C40FDF753FA22A0FDF723FA012208215B
:1039C0002A48FDF748FC4FF48077002439466846C2
:1039D000FCF73EFC6D462648FDF74EFA2428FAD146
:1039E0000026285509E02248FDF746FA242809D088
:1039F000641CE4B20D28285504D03046761CF6B27B
:103A0000C828F0D3641CE0B20A212954401C0021CC
:103A1000C0B20C462954694616A0FDF7F2F9684673
:103A200000F022FA4FF47A70FDF722FB394668461F
:103A3000FCF70EFCCFE70000F0010020F0050020AD
:103A40000A3D3D3D3D3D3D3D3D3D3D4750532D549F
:103A50004553542D414741494E2D3D3D3D3D3D3D52
:103A60003D3D3D3D3D3D3D0A000000000004004855
:103A7000FC0900200A4E4D45413A20257300000004
:103A800010B5044600F0D7F9002805D107A120465B
:103A9000FCF7E9FB08B1022010BD06A12046FCF7A7
:103AA000E2FB0028F8D0012010BD00002447504759
:103AB00047410000244750524D4300002DE9FE438A
:103AC0000C462C21FCF7E1FB401C0546FFF7B0FA41
:103AD00051EC100BFCF73BFC00EE100A42F21072A6
:103AE000FCEEC00A10EE901AB1FBF2F0C6B2B1FBC8
:103AF000F2F002FB10106421B0FBF1F2D7B2B0FB80
:103B0000F1F201FB120810EE100AFCF70DFC41EC7B
:103B1000100B8DE8C00153EC102B36A0FDF771F9A6
:103B20002C212846FCF7B1FB401C0546FFF780FA24
:103B300051EC100B206061602C212846FCF7A5FB9E
:103B400010F8011F00252C2905D04E2901D053293A
:103B500002D1217200E025722C21FCF796FB401C5B
:103B60000646FFF765FA51EC100BC4F80900C4F8DB
:103B70000D102C213046FCF788FB10F8011F2C2972
:103B800005D0452901D0572902D1617400E0657440
:103B90002C21FCF77AFB401C0546FCF7B8FBA0740F
:103BA0002C212846FCF771FB401C0546FCF7AFFBB7
:103BB000E0742C212846FCF768FB2C21401CFCF704
:103BC00064FB401CFFF734FA51EC100B6061A161FB
:103BD000D4F80D10D4F80900CDE90001206861681F
:103BE00041EC100B0DA053EC102BFDF70AF900F07F
:103BF0001FB800005554432074696D65284750472D
:103C00004741293A20252E30336620253032643A48
:103C1000253032643A253032640D0A000A4C617452
:103C20003A2025662C206C6F6E3A2025660A00002B
:103C300006BCBDE8F88300002DE9FE4F0C462C21A0
:103C4000FCF723FB401C0546FFF7F2F951EC100B83
:103C5000FCF77DFB00EE100A42F210794846FCEEBC
:103C6000C00A4FF0640A10EE901AB1FBF0F2D6B21F
:103C7000B1FBF9F209FB12115046B1FBF0F2D7B2D9
:103C8000B1FBFAF20AFB121810EE100AFCF74CFB1B
:103C900041EC100B8DE8C00153EC102B4BA0FDF74D
:103CA000B0F82C212846FCF7F0FA2C21401CFCF738
:103CB000ECFA401C0546FFF7BBF951EC100B2060F5
:103CC00061602C212846FCF7E0FA10F8011F00255E
:103CD0002C2905D04E2901D0532902D1217200E0B0
:103CE00025722C21FCF7D1FA401C0646FFF7A0F9FB
:103CF00051EC100BC4F80900C4F80D102C2130460B
:103D0000FCF7C3FA10F8011F2C2905D0452901D072
:103D1000572902D1617400E065742C21FCF7B5FAD3
:103D2000401C0546FFF784F951EC100B44F8120FC4
:103D3000284661602C21FCF7A8FA401C0546FFF7D5
:103D400077F951EC100BA060E1602C212846FCF7BC
:103D50009CFA401CFFF76CF951EC100BFCF7F7FADA
:103D600000EE100A4946FCEEC00A10EE900AB0FBC5
:103D7000F1F2D5B2B0FBF9F209FB12015046B1FBEA
:103D8000F0F2D6B2B1FBFAF20AFB121710EE100AEB
:103D9000FCF7CAFA41EC100B8DE8E00053EC102B55
:103DA00014A0FDF72EF854F8051C54F8090CCDE9C1
:103DB000000154F8120C54F80E1C41EC100B17A023
:103DC00053EC102BFDF71DF800F032B8555443208A
:103DD00074696D65284750524D43293A20252E308D
:103DE000336620253032643A253032643A25303249
:103DF000640D0A00555443206461746520284750BF
:103E0000524D43293A20252E306620253032642D2C
:103E1000253032642D253032640D0A000A4C61745D
:103E20003A2025662C206C6F6E3A2025660A000029
:103E30001EBCBDE8E08F10B504462A21FCF725FA28
:103E400010220021401CFCF72AFAC1B20020641C99
:103E500000E0504014F8012B2A2AFAD1884201D000
:103E6000802010BD002010BD30B591B00546002463
:103E7000FFF706FE012807D002280AD109A9284623
:103E8000FFF71CFE022404E069462846FFF7D4FE33
:103E9000012411B0204630BD0000000000000000E9
:103EA0000102030406070809A0860100400D030073
:103EB000801A060000350C0040420F0080841E006E
:103EC00000093D0000127A000024F40000366E0163
:103ED0000048E801006CDC0200000000010203045D
:103EE000004040404040404040404141414141400D
:103EF00040404040404040404040404040404040C2
:103F00004005020202020202020202020202020250
:103F10000220202020202020202020020202020255
:103F200002029090909090901010101010101010AD
:103F300010101010101010101010101002020202B9
:103F400002028888888888880808080808080808FD
:103F500008080808080808080808080802020202F9
:103F600040000000E13E0008883F000800000020FB
:103F70001000000074300008983F00081000002076
:103F8000180F00008430000800000000000000004E
:083F900000093D0000000000E3
:040000050800018965
:00000001FF
